:020000040800F2
:10000000002800200D1000089D0F0008A30F000815
:10001000A90F0008AF0F0008B50F0008000000008E
:10002000000000000000000000000000BB0F0008FE
:10003000C70F000800000000D30F0008DF0F000802
:1000400055100008551000085510000855100008FC
:1000500055100008551000085510000855100008EC
:1000600055100008551000085510000855100008DC
:1000700055100008551000085510000855100008CC
:1000800055100008551000085510000855100008BC
:1000900055100008551000085510000855100008AC
:1000A000551000085510000855100008551000089C
:1000B000ED0F000855100008000000005510000862
:1000C0005510000800000000000000005510000856
:1000D0000000000055100008551000080000000046
:1000E00055100008551000085510000800000000C9
:1000F0000000000000000000000000000000000000
:0C01000000000000000000005FF808F1A3
:10010C0010B5054C237833B9044B13B10448AFF345
:10011C0000800123237010BD50000020000000005F
:10012C00B026000808B5034B1BB103490348AFF3D5
:10013C00008008BD0000000054000020B02600081C
:10014C0080B582B000AF78607B68092B00F28081AB
:10015C0001A252F823F000BF8D010008D501000860
:10016C001D02000865020008AD020008F502000837
:10017C003D03000885030008CD03000815040008A2
:10018C0000220121B54801F064FA00220221B34893
:10019C0001F05FFA00220421B04801F05AFA002263
:1001AC000821AE4801F055FA00221021AB4801F0AD
:1001BC0050FA00222021A94801F04BFA01224021DB
:1001CC00A64801F046FA44E101220121A34801F0BE
:1001DC0040FA00220221A14801F03BFA002204213E
:1001EC009E4801F036FA012208219C4801F031FAB0
:1001FC0001221021994801F02CFA01222021974864
:10020C0001F027FA01224021944801F022FA20E162
:10021C0000220121914801F01CFA002202218F4892
:10022C0001F017FA012204218C4801F012FA002285
:10023C0008218A4801F00DFA00221021874801F0AC
:10024C0008FA01222021854801F003FA00224021FE
:10025C00824801F0FEF9FCE0002201217F4801F008
:10026C00F8F9002202217D4801F0F3F90022042163
:10027C007A4801F0EEF900220821784801F0E9F9FA
:10028C0001221021754801F0E4F901222021734864
:10029C0001F0DFF900224021704801F0DAF9D8E0D2
:1002AC00012201216D4801F0D4F9002202216B4892
:1002BC0001F0CFF900220421684801F0CAF90122AB
:1002CC000821664801F0C5F901221021634801F0AC
:1002DC00C0F900222021614801F0BBF90022402125
:1002EC005E4801F0B6F9B4E0002201215B4801F050
:1002FC00B0F901220221594801F0ABF90022042186
:10030C00564801F0A6F900220821544801F0A1F941
:10031C0001221021514801F09CF9002220214F4864
:10032C0001F097F9002240214C4801F092F990E03D
:10033C0000220121494801F08CF901220221474891
:10034C0001F087F900220421444801F082F90022CF
:10035C000821424801F07DF9002210213F4801F0AC
:10036C0078F9002220213D4801F073F90022402148
:10037C003A4801F06EF96CE000220121374801F097
:10038C0068F900220221354801F063F900220421AA
:10039C00324801F05EF901220821304801F059F988
:1003AC00012210212D4801F054F9012220212B4863
:1003BC0001F04FF901224021284801F04AF948E0A8
:1003CC0000220221254801F044F90022042123488F
:1003DC0001F03FF900220821204801F03AF90022EF
:1003EC0010211E4801F035F9002220211B4801F094
:1003FC0030F900224021194801F02BF9002201218B
:10040C00164801F026F924E000220121134801F0DE
:10041C0020F900220221114801F01BF900220421CD
:10042C000E4801F016F9002208210C4801F011F9D0
:10043C0001221021094801F00CF900222021074863
:10044C0001F007F900224021044801F002F900E014
:10045C0000BF00BF0837BD4680BD00BF000C014087
:10046C0080B500AF034B1B681846FFF769FE00BF51
:10047C0080BD00BF6C00002080B483B000AF7860FA
:10048C00034A7B68136000BF0C37BD4680BC7047C5
:10049C006C00002080B483B000AF78607B68084AA1
:1004AC0082FB03129210DB17D31A064A1360064B19
:1004BC0000221A6000BF0C37BD4680BC704700BFDD
:1004CC00676666667C000020A400002080B483B0C0
:1004DC0000AF78607B68084A82FB03129210DB172E
:1004EC00D31A064A1360064B00221A6000BF0C3761
:1004FC00BD4680BC704700BF676666668000002002
:10050C00A800002080B483B000AF78607B68084AF4
:10051C0082FB03129210DB17D31A064A1360064BA8
:10052C0000221A6000BF0C37BD4680BC704700BF6C
:10053C006766666684000020AC00002080B483B03F
:10054C0000AF78607B68084A82FB03129210DB17BD
:10055C00D31A064A1360064B00221A6000BF0C37F0
:10056C00BD4680BC704700BF676666668800002089
:10057C00B000002080B400AF424B1B68012B03D1AC
:10058C00414B01221A6004E03E4B1B68013B3D4A83
:10059C0013603E4B1B68012B03D13D4B01221A60AB
:1005AC0004E03A4B1B68013B384A1360394B1B681B
:1005BC00012B03D1384B01221A6004E0354B1B6828
:1005CC00013B344A1360354B1B68012B03D1344B70
:1005DC0001221A6004E0314B1B68013B2F4A136067
:1005EC00304B1B68012B03D12F4B01221A6004E006
:1005FC002C4B1B68013B2B4A13602C4B1B68012BAB
:10060C0003D12B4B01221A6004E0284B1B68013BE1
:10061C00264A1360274B1B68012B03D1264B012262
:10062C001A6004E0234B1B68013B224A1360234BE6
:10063C001B68012B03D1224B01221A6004E01F4BD3
:10064C001B68013B1D4A13601E4B1B68012B03D119
:10065C001D4B01221A6004E01A4B1B68013B194A1E
:10066C0013601A4B1B68012B03D1194B01221A6022
:10067C0004E0164B1B68013B144A136000BFBD46D7
:10068C0080BC70477C000020A4000020800000206B
:10069C00A800002084000020AC000020880000206E
:1006AC00B00000208C000020B4000020900000203E
:1006BC00B800002094000020BC000020980000200E
:1006CC00C00000209C000020C4000020A0000020DE
:1006DC00C800002080B400AF064B1B68012B04D16E
:1006EC00044B00221A60012300E000231846BD468B
:1006FC0080BC7047CC00002080B500AF254B1B6838
:10070C00254A1360254B1B68224A1360022124489A
:10071C0000F088FF03461A46204B1A601E4B1A68DD
:10072C001C4B1B689A4232D11A4B1A681B4B1B6824
:10073C009A422CD1194B1A681A4B1B689A4213D047
:10074C00164B1B68174A1360144B1B68002B03D104
:10075C00154B01221A601AE0134B00221A60134B3E
:10076C004FF496721A6012E00C4B1B68002B0ED1E2
:10077C000E4B1B68013B0D4A13600C4B1B68002B86
:10078C0005D10A4B64221A60074B01221A6000BF84
:10079C0080BD00BF040000200000002008000020E5
:1007AC00000801400C000020CC00002010000020AC
:1007BC0080B400AF064B1B68012B04D1044B002204
:1007CC001A60012300E000231846BD4680BC704728
:1007DC00D000002080B500AF254B1B68254A136064
:1007EC00254B1B68224A13600421244800F01AFF91
:1007FC0003461A46204B1A601E4B1A681C4B1B688A
:10080C009A4232D11A4B1A681B4B1B689A422CD154
:10081C00194B1A681A4B1B689A4213D0164B1B685B
:10082C00174A1360144B1B68002B03D1154B012284
:10083C001A601AE0134B00221A60134B4FF4967295
:10084C001A6012E00C4B1B68002B0ED10E4B1B6870
:10085C00013B0D4A13600C4B1B68002B05D10A4B56
:10086C0064221A60074B01221A6000BF80BD00BFD2
:10087C0018000020140000201C000020000801407B
:10088C0020000020D00000202400002080B400AF05
:10089C00064B1B68012B04D1044B00221A60012368
:1008AC0000E000231846BD4680BC7047D4000020F1
:1008BC0080B500AF254B1B68254A1360254B1B6880
:1008CC00224A13600821244800F0ACFE03461A4665
:1008DC00204B1A601E4B1A681C4B1B689A4232D173
:1008EC001A4B1A681B4B1B689A422CD1194B1A686D
:1008FC001A4B1B689A4213D0164B1B68174A13608D
:10090C00144B1B68002B03D1154B01221A601AE003
:10091C00134B00221A60134B4FF496721A6012E0BC
:10092C000E4B1B68002B0ED10E4B1B68013B0D4A66
:10093C0013600C4B1B68002B05D10A4B64221A6008
:10094C00074B01221A6000BF80BD00BF2C000020A5
:10095C002800002030000020000801403400002056
:10096C00D40000203800002080B500AF864B1B68F7
:10097C00013B032B00F2608101A252F823F000BF6F
:10098C009D090008510A0008F30A0008A50B00088D
:10099C007E4B1B68012B0FD14FF47A70FFF7B2FD21
:1009AC007B4B1B68013B7A4A1360794B1B68002B0D
:1009BC0002DA774B00221A60754B1B681846FFF75A
:1009CC005BFDFFF7F5FE0346002B12D06E4B0222A7
:1009DC001A606F4B1B6801336D4A13606C4B1B68BC
:1009EC00092B02DD6A4B00221A6042F21070FFF7ED
:1009FC006DFDFFF74BFF0346002B12D0624B032219
:100A0C001A60634B1B68013B614A1360604B1B68A7
:100A1C00002B02DA5E4B09221A6042F21070FFF7CB
:100A2C0055FDFFF757FE0346002B00F00781564B90
:100A3C0004221A60564B00221A6042F21070FFF723
:100A4C0045FDFBE0FFF746FE0346002B09D04E4B5D
:100A5C0004221A6042F21070FFF738FD4C4B002252
:100A6C001A60FFF7A5FE0346002B12D0464B02225C
:100A7C001A6042F21070FFF729FD454B1B680133D9
:100A8C00434A1360424B1B68092B02DD404B00228A
:100A9C001A60FFF7FBFE0346002B12D03A4B0322E1
:100AAC001A6042F21070FFF711FD394B1B68013BC5
:100ABC00374A1360364B1B68002B02DA344B092281
:100ACC001A60334B1B681846FFF7D6FC314B1B687A
:100ADC00012B40F0B5804FF47A70FFF713FD2A4BD1
:100AEC0001221A60ACE0FFF7F5FD0346002B09D09C
:100AFC00254B04221A6042F21070FFF7E7FC244BDE
:100B0C0000221A60FFF754FE0346002B12D01E4B36
:100B1C0002221A6042F21070FFF7D8FC1C4B1B68C3
:100B2C0001331B4A13601A4B1B68092B02DD184B4F
:100B3C0000221A60FFF7AAFE0346002B12D0124BBC
:100B4C0003221A6042F21070FFF7C0FC104B1B68B6
:100B5C00013B0F4A13600E4B1B68002B02DA0C4B47
:100B6C0009221A600A4B1B681846FFF785FC094BD3
:100B7C001B68012B66D14FF47A70FFF7C3FC024B54
:100B8C0001221A605EE000BF3C000020AC00002097
:100B9C0040000020A8000020FFF79CFD0346002B1E
:100BAC0009D02B4B04221A6042F21070FFF78EFC16
:100BBC00284B00221A60FFF7FBFD0346002B12D0D6
:100BCC00234B02221A6042F21070FFF77FFC214B7C
:100BDC001B6801331F4A13601E4B1B68092B02DD77
:100BEC001C4B00221A60FFF751FE0346002B12D05B
:100BFC00174B03221A6042F21070FFF767FC154B7B
:100C0C001B68013B134A1360124B1B68002B02DA62
:100C1C00104B09221A600F4B1B681846FFF72CFC6F
:100C2C000D4B1B68012B0FD14FF47A70FFF76AFC48
:100C3C00074B01221A6007E000BF06E000BF04E08A
:100C4C0000BF02E000BF00E000BF00BF80BD00BFDE
:100C5C003C00002040000020A800002080B500AF20
:100C6C0000F0F4F900F032F800F0B8F800F06AF88F
:100C7C00124801F057F94FF47A70FFF70BFC4FF460
:100C8C007A70FFF73FFC6420FFF758FCFFF76CFE0F
:100C9C000B4B1B68012B07D14FF47A70FFF7FAFB53
:100CAC002021084800F0EDFC074B1B68012BEDD10F
:100CBC006420FFF743FCFFF7D3FBE7E7D8000020E5
:100CCC00A400002000080140B000002080B590B0C6
:100CDC0000AF07F1180328220021184601F0DAFCB6
:100CEC003B1D00221A605A609A60DA601A61022376
:100CFC00BB610123BB621023FB6200237B6307F102
:100D0C001803184600F0D6FC0346002B01D000F067
:100D1C00F3F80F237B600023BB600023FB600023F0
:100D2C003B6100237B613B1D0021184600F044FF12
:100D3C000346002B01D000F0DFF800BF4037BD4662
:100D4C0080BD000080B586B000AF07F1080300221B
:100D5C001A605A609A60DA603B4600221A605A6048
:100D6C001D4B4FF080421A601B4B41F63F725A608C
:100D7C00194B00229A60184B0922DA60164B00229C
:100D8C001A61154B00229A61134801F07BF8034657
:100D9C00002B01D000F0B0F84FF48053BB6007F18A
:100DAC00080319460C4801F011FA0346002B01D038
:100DBC0000F0A2F800233B6000237B603B46194601
:100DCC00054801F0D9FB0346002B01D000F094F844
:100DDC0000BF1837BD4680BDD800002080B588B054
:100DEC0000AF07F1100300221A605A609A60DA60B3
:100DFC00354B9B69344A43F010039361324B9B692A
:100E0C0003F01003FB60FB682F4B9B692E4A43F0E9
:100E1C00040393612C4B9B6903F00403BB60BB6818
:100E2C00294B9B69284A43F008039361264B9B6925
:100E3C0003F008037B607B6800224FF6F0712348B7
:100E4C0000F007FC00224FF67F71214800F001FCF6
:100E5C004FF400533B6100237B610123BB6107F11D
:100E6C00100319461B4800F061FA0E233B61002366
:100E7C007B610123BB6107F110031946134800F095
:100E8C0055FA4FF6F0733B6101237B610023BB6184
:100E9C000223FB6107F1100319460C4800F046FAD7
:100EAC004FF67F733B6101237B610023BB610223FF
:100EBC00FB6107F110031946054800F037FA00BF33
:100ECC002037BD4680BD00BF001002400008014025
:100EDC00000C01400010014080B582B000AF78607A
:100EEC00FFF748FBFFF708FCFFF774FCFFF7E0FC8B
:100EFC0000BF0837BD4680BD80B400AF72B600BFDE
:100F0C00FEE7000080B483B000AF0E4B9B690D4A26
:100F1C0043F0010393610B4B9B6903F001037B606E
:100F2C007B68084BDB69074A43F08053D361054B60
:100F3C00DB6903F080533B603B6800BF0C37BD4658
:100F4C0080BC70470010024080B584B000AF786060
:100F5C007B681B68B3F1804F13D10C4BDB690B4AD8
:100F6C0043F00103D361094BDB6903F00103FB6020
:100F7C00FB68002200211C2000F0A1F91C2000F0CD
:100F8C00BAF900BF1037BD4680BD00BF001002404B
:100F9C0080B400AFFEE780B400AFFEE780B400AFD2
:100FAC00FEE780B400AFFEE780B400AFFEE780B48C
:100FBC0000AF00BFBD4680BC704780B400AF00BF1F
:100FCC00BD4680BC704780B400AF00BFBD4680BC3E
:100FDC00704780B500AF00F07FF800BF80BD000007
:100FEC0080B500AF024800F0E9FF00BF80BD00BF34
:100FFC00D800002080B400AF00BFBD4680BC704755
:10100C000C480D490D4A002302E0D458C450043357
:10101C00C4188C42F9D30A4A0A4C002301E013602D
:10102C000432A242FBD3FFF7E5FF01F00FFBFFF701
:10103C0015FE70470000002050000020F02600082C
:10104C005000002024010020FEE7000080B500AF16
:10105C00084B1B68074A43F010031360032000F091
:10106C0023F90F2000F008F8FFF74CFF0023184677
:10107C0080BD00BF0020024080B582B000AF786018
:10108C00124B1A68124B1B7819464FF47A73B3FB48
:10109C00F1F3B2FBF3F3184600F03BF90346002BD7
:1010AC0001D001230EE07B680F2B0AD8002279684F
:1010BC004FF0FF3000F003F9064A7B681360002301
:1010CC0000E0012318460837BD4680BD44000020CF
:1010DC004C0000204800002080B400AF054B1B786A
:1010EC001A46054B1B681344034A136000BFBD46E8
:1010FC0080BC70474C0000202001002080B400AF61
:10110C00024B1B681846BD4680BC7047200100206E
:10111C0080B485B000AF78607B6803F00703FB6098
:10112C000C4BDB68BB60BA684FF6FF031340BB6027
:10113C00FB681A02BB68134343F0BF6343F40033EC
:10114C00BB60044ABB68D36000BF1437BD4680BC8B
:10115C00704700BF00ED00E080B400AF044BDB68CB
:10116C001B0A03F007031846BD4680BC704700BF3E
:10117C0000ED00E080B483B000AF0346FB7197F93B
:10118C000730002B0BDBFB7903F01F02064997F9A4
:10119C0007305B09012000FA02F241F8232000BF5E
:1011AC000C37BD4680BC704700E100E080B483B0D2
:1011BC0000AF03463960FB7197F90730002B0ADB4F
:1011CC003B68DAB20C4997F907301201D2B20B44E2
:1011DC0083F800230AE03B68DAB20849FB7903F094
:1011EC000F03043B1201D2B20B441A7600BF0C372A
:1011FC00BD4680BC704700BF00E100E000ED00E0A0
:10120C0080B489B000AFF860B9607A60FB6803F015
:10121C000703FB61FB69C3F10703042B28BF0423FD
:10122C00BB61FB690433062B02D9FB69033B00E06D
:10123C0000237B614FF0FF32BB6902FA03F3DA4300
:10124C00BB681A407B699A404FF0FF317B6901FA09
:10125C0003F3D9437B680B40134318462437BD4630
:10126C0080BC704780B582B000AF78607B68013B72
:10127C00B3F1807F01D301230FE00A4A7B68013B65
:10128C0053600F214FF0FF30FFF790FF054B00220A
:10129C009A60044B07221A60002318460837BD4693
:1012AC0080BD00BF10E000E080B582B000AF786078
:1012BC007868FFF72DFF00BF0837BD4680BD80B5AD
:1012CC0086B000AF0346B9607A60FB7300237B6184
:1012DC00FFF742FF78617A68B9687869FFF790FF89
:1012EC00024697F90F3011461846FFF75FFF00BF13
:1012FC001837BD4680BD80B582B000AF0346FB7188
:10130C0097F907301846FFF735FF00BF0837BD4681
:10131C0080BD80B582B000AF78607868FFF7A2FF1F
:10132C00034618460837BD4680BD000080B48BB01C
:10133C0000AF7860396000237B6200233B6261E17F
:10134C0001227B6A02FA03F3FB613B681B68FA69B2
:10135C001340BB61BA69FB699A4240F050813B680B
:10136C005B68974A93425ED0954A934275D8954AEA
:10137C00934258D0934A93426FD8934A934252D097
:10138C00914A934269D8914A93424CD08F4A9342E6
:10139C0063D88F4A934246D08D4A93425DD8122B24
:1013AC002AD8122B59D801A252F823F03314000872
:1013BC000D1400081F1400086114000867140008BD
:1013CC006714000867140008671400086714000805
:1013DC0067140008671400086714000867140008F5
:1013EC0067140008671400086714000867140008E5
:1013FC001514000829140008764A934213D02CE0E7
:10140C003B68DB683B6229E03B68DB6804333B628A
:10141C0024E03B68DB6808333B621FE03B68DB6819
:10142C000C333B621AE03B689B68002B02D104230F
:10143C003B6213E03B689B68012B05D108233B62A0
:10144C007B68FA691A6109E008233B627B68FA69D8
:10145C005A6103E000233B6200E000BFBB69FF2B35
:10146C0001D87B6801E07B6804337B61BB69FF2B8F
:10147C0002D87B6A9B0002E07B6A083B9B003B61C5
:10148C007B691A680F213B6901FA03F3DB431A40AD
:10149C00396A3B6901FA03F31A437B691A603B68AA
:1014AC005B6803F08053002B00F0A9804A4B9B69CA
:1014BC00494A43F001039361474B9B6903F00103D5
:1014CC00BB60BB68454A7B6A9B08023352F82330E9
:1014DC00FB607B6A03F003039B000F2202FA03F309
:1014EC00DB43FA681340FB607B683D4A93420DD0A6
:1014FC007B683C4A934207D07B683B4A934201D1BC
:10150C00022304E0032302E0012300E000237A6AB3
:10151C0002F0030292009340FA681343FB602F49D8
:10152C007B6A9B080233FA6841F823203B685B68AE
:10153C0003F48033002B06D02C4B1A682B49BB6963
:10154C0013430B6006E0294B1A68BB69DB43274940
:10155C0013400B603B685B6803F40033002B06D030
:10156C00224B5A682149BB6913434B6006E01F4B61
:10157C005A68BB69DB431D4913404B603B685B6891
:10158C0003F48013002B06D0184B9A681749BB69DB
:10159C0013438B6006E0154B9A68BB69DB43134918
:1015AC0013408B603B685B6803F40013002B1FD067
:1015BC000E4BDA680D49BB691343CB601FE000BFCB
:1015CC000000321000003110000022100000211029
:1015DC000000121000001110001002400000014029
:1015EC0000080140000C01400010014000040140C3
:1015FC000B4BDA68BB69DB4309491340CB607B6A50
:10160C0001337B623B681A687B6A22FA03F3002B76
:10161C007FF496AE00BF00BF2C37BD4680BC704730
:10162C000004014080B485B000AF78600B467B802D
:10163C007B689A687B881340002B02D00123FB73D4
:10164C0001E00023FB73FB7B18461437BD4680BCBE
:10165C00704780B483B000AF78600B467B80134634
:10166C007B707B78002B03D07A887B681A6103E04F
:10167C007B881A047B681A6100BF0C37BD4680BC9E
:10168C00704780B485B000AF78600B467B807B6878
:10169C00DB68FB607A88FB6813401A04FB68D9434B
:1016AC007B880B401A437B681A6100BF1437BD4618
:1016BC0080BC704780B586B000AF78607B68002B2B
:1016CC0001D1012372E27B681B6803F00103002B3C
:1016DC0000F08780924B5B6803F00C03042B0CD05A
:1016EC008F4B5B6803F00C03082B12D18C4B5B689F
:1016FC0003F48033B3F5803F0BD1894B1B6803F4A3
:10170C000033002B6CD07B685B68002B68D1012305
:10171C004CE27B685B68B3F5803F06D1804B1B685D
:10172C007F4A43F4803313602EE07B685B68002BA8
:10173C000CD17B4B1B687A4A23F480331360784BB3
:10174C001B68774A23F4802313601DE07B685B6879
:10175C00B3F5A02F0CD1724B1B68714A43F4802354
:10176C0013606F4B1B686E4A43F4803313600BE0BD
:10177C006B4B1B686A4A23F480331360684B1B68FD
:10178C00674A23F4802313607B685B68002B13D0BB
:10179C00FFF7B4FC386108E0FFF7B0FC02463B6988
:1017AC00D31A642B01D9032300E25D4B1B6803F4AD
:1017BC000033002BF0D014E0FFF7A0FC386108E0F8
:1017CC00FFF79CFC02463B69D31A642B01D9032317
:1017DC00ECE1534B1B6803F40033002BF0D100E019
:1017EC0000BF7B681B6803F00203002B63D04C4BDB
:1017FC005B6803F00C03002B0BD0494B5B6803F0C8
:10180C000C03082B1CD1464B5B6803F48033002B74
:10181C0016D1434B1B6803F00203002B05D07B68E9
:10182C001B69012B01D00123C0E13D4B1B6823F048
:10183C00F8027B685B69DB00394913430B603AE0C3
:10184C007B681B69002B20D0364B01221A60FFF7F6
:10185C0055FC386108E0FFF751FC02463B69D31A8E
:10186C00022B01D90323A1E12D4B1B6803F00203CA
:10187C00002BF0D02A4B1B6823F0F8027B685B69C5
:10188C00DB00274913430B6015E0264B00221A603E
:10189C00FFF734FC386108E0FFF730FC02463B6987
:1018AC00D31A022B01D9032380E11D4B1B6803F0D3
:1018BC000203002BF0D17B681B6803F00803002B9C
:1018CC003AD07B689B69002B19D0174B01221A6008
:1018DC00FFF714FC386108E0FFF710FC02463B6987
:1018EC00D31A022B01D9032360E10D4B5B6A03F081
:1018FC000203002BF0D0012000F0A6FA1CE00A4BEA
:10190C0000221A60FFF7FAFB38610FE0FFF7F6FBD5
:10191C0002463B69D31A022B08D9032346E100BFC8
:10192C00001002400000424280044242924B5B6A2B
:10193C0003F00203002BE9D17B681B6803F004035E
:10194C00002B00F0A6800023FB758B4BDB6903F0AA
:10195C008053002B0DD1884BDB69874A43F08053B1
:10196C00D361854BDB6903F08053BB60BB680123FB
:10197C00FB75824B1B6803F48073002B18D17F4BD3
:10198C001B687E4A43F480731360FFF7B7FB386122
:10199C0008E0FFF7B3FB02463B69D31A642B01D96D
:1019AC00032303E1754B1B6803F48073002BF0D009
:1019BC007B68DB68012B06D16F4B1B6A6E4A43F0C8
:1019CC00010313622DE07B68DB68002B0CD16A4BA2
:1019DC001B6A694A23F001031362674B1B6A664A50
:1019EC0023F0040313621CE07B68DB68052B0CD12D
:1019FC00614B1B6A604A43F0040313625E4B1B6A23
:101A0C005D4A43F0010313620BE05B4B1B6A5A4ABD
:101A1C0023F001031362584B1B6A574A23F004034B
:101A2C0013627B68DB68002B15D0FFF767FB38610E
:101A3C000AE0FFF763FB02463B69D31A41F2883296
:101A4C00934201D90323B1E04B4B1B6A03F0020311
:101A5C00002BEED014E0FFF751FB38610AE0FFF7E2
:101A6C004DFB02463B69D31A41F28832934201D9AD
:101A7C0003239BE0404B1B6A03F00203002BEED1C7
:101A8C00FB7D012B05D13C4BDB693B4A23F080539A
:101A9C00D3617B68DB69002B00F08780364B5B6879
:101AAC0003F00C03082B61D07B68DB69022B46D159
:101ABC00334B00221A60FFF721FB386108E0FFF777
:101ACC001DFB02463B69D31A022B01D903236DE09F
:101ADC00294B1B6803F00073002BF0D17B681B6A49
:101AEC00B3F5803F08D1244B5B6823F400327B684C
:101AFC009B68214913434B601F4B5B6823F47412A2
:101B0C007B68196A7B685B6A0B431B4913434B6008
:101B1C001B4B01221A60FFF7F1FA386108E0FFF75E
:101B2C00EDFA02463B69D31A022B01D903233DE09F
:101B3C00114B1B6803F00073002BF0D035E0104BF9
:101B4C0000221A60FFF7DAFA386108E0FFF7D6FADC
:101B5C0002463B69D31A022B01D9032326E0064B1C
:101B6C001B6803F00073002BF0D11EE07B68DB696F
:101B7C00012B07D1012319E0001002400070004036
:101B8C00600042420B4B5B68FB60FB6803F48032E5
:101B9C007B681B6A9A4206D1FB6803F470127B685F
:101BAC005B6A9A4201D0012300E0002318461837E3
:101BBC00BD4680BD0010024080B584B000AF786097
:101BCC0039607B68002B01D10123D0E06A4B1B6884
:101BDC0003F007033A689A4210D9674B1B6823F04D
:101BEC00070265493B6813430B60634B1B6803F0AA
:101BFC0007033A689A4201D00123B8E07B681B685E
:101C0C0003F00203002B20D07B681B6803F0040355
:101C1C00002B05D0594B5B68584A43F4E063536082
:101C2C007B681B6803F00803002B05D0534B5B68E3
:101C3C00524A43F460535360504B5B6823F0F002FC
:101C4C007B689B684D4913434B607B681B6803F0B2
:101C5C000103002B40D07B685B68012B07D1474BFD
:101C6C001B6803F40033002B15D101237FE07B6844
:101C7C005B68022B07D1414B1B6803F00073002BF0
:101C8C0009D1012373E03D4B1B6803F00203002BC9
:101C9C0001D101236BE0394B5B6823F003027B68B5
:101CAC005B68364913434B60FFF728FAF8600AE08B
:101CBC00FFF724FA0246FB68D31A41F288329342AA
:101CCC0001D9032353E02D4B5B6803F00C027B68B6
:101CDC005B689B009A42EBD1274B1B6803F0070310
:101CEC003A689A4210D2244B1B6823F0070222490F
:101CFC003B6813430B60204B1B6803F007033A68E7
:101D0C009A4201D0012332E07B681B6803F0040384
:101D1C00002B08D0194B5B6823F4E0627B68DB680E
:101D2C00164913434B607B681B6803F00803002BB8
:101D3C0009D0124B5B6823F460527B681B69DB0093
:101D4C000E4913434B6000F021F802460B4B5B68C5
:101D5C001B0903F00F030A49CB5C22FA03F3094A6F
:101D6C001360094B1B681846FFF786F900231846C9
:101D7C001037BD4680BD00BF00200240001002405D
:101D8C00D8260008440000204800002090B48AB0F7
:101D9C0000AF294B3C1D0FCB84E80F0040F2012310
:101DAC003B800023FB610023BB6100237B6200238B
:101DBC007B6100233B62214B5B68FB61FB6903F099
:101DCC000C03042B02D0082B03D02BE01C4B3B62E2
:101DDC002BE0FB699B0C03F00F0328333B4413F8F7
:101DEC00243C7B61FB6903F48033002B12D0134B32
:101DFC005B685B0C03F0010328333B4413F8283C6D
:101E0C00BB617B690E4A03FB02F2BB69B2FBF3F3C5
:101E1C007B6204E07B690B4A02FB03F37B627B6A07
:101E2C003B6202E0064B3B6200BF3B6A1846283718
:101E3C00BD4690BC704700BFC82600080010024089
:101E4C0000127A0000093D0080B485B000AF7860C4
:101E5C000A4B1B680A4AA2FB03235B0A7A6802FB43
:101E6C0003F3FB6000BFFB685A1EFA60002BF9D12C
:101E7C0000BF00BF1437BD4680BC70474400002033
:101E8C00D34D621080B582B000AF78607B68002BB8
:101E9C0001D1012341E07B6893F83D30DBB2002B8C
:101EAC0006D17B68002283F83C207868FFF74CF859
:101EBC007B68022283F83D207B681A687B680433B8
:101ECC001946104600F06AFA7B68012283F8462016
:101EDC007B68012283F83E207B68012283F83F2037
:101EEC007B68012283F840207B68012283F8412023
:101EFC007B68012283F842207B68012283F843200F
:101F0C007B68012283F844207B68012283F84520FA
:101F1C007B68012283F83D20002318460837BD4614
:101F2C0080BD000080B485B000AF78607B6893F80A
:101F3C003D30DBB2012B01D0012335E07B6802225E
:101F4C0083F83D207B681B68DA687B681B6842F06D
:101F5C000102DA607B681B68164A934209D07B68E1
:101F6C001B68B3F1804F04D07B681B68124A934204
:101F7C0011D17B681B689B6803F00703FB60FB684F
:101F8C00062B10D07B681B681A687B681B6842F0B4
:101F9C0001021A6007E07B681B681A687B681B6883
:101FAC0042F001021A60002318461437BD4680BC6B
:101FBC00704700BF002C01400004004080B582B087
:101FCC0000AF78607B681B681B6903F00203022B6F
:101FDC0022D17B681B68DB6803F00203022B1BD148
:101FEC007B681B686FF002021A617B6801221A770A
:101FFC007B681B689B6903F00303002B03D0786894
:10200C0000F0B1F905E0786800F0A4F9786800F008
:10201C00B3F97B6800221A777B681B681B6903F095
:10202C000403042B22D17B681B68DB6803F00403D8
:10203C00042B1BD17B681B686FF004021A617B6850
:10204C0002221A777B681B689B6903F44073002B90
:10205C0003D0786800F087F905E0786800F07AF929
:10206C00786800F089F97B6800221A777B681B6816
:10207C001B6903F00803082B22D17B681B68DB6803
:10208C0003F00803082B1BD17B681B686FF0080258
:10209C001A617B6804221A777B681B68DB6903F082
:1020AC000303002B03D0786800F05DF905E0786835
:1020BC0000F050F9786800F05FF97B6800221A771D
:1020CC007B681B681B6903F01003102B22D17B6803
:1020DC001B68DB6803F01003102B1BD17B681B689B
:1020EC006FF010021A617B6808221A777B681B68F4
:1020FC00DB6903F44073002B03D0786800F033F9EC
:10210C0005E0786800F026F9786800F035F97B680E
:10211C0000221A777B681B681B6903F00103012BF3
:10212C000ED17B681B68DB6803F00103012B07D120
:10213C007B681B686FF001021A617868FEF7CCFEB1
:10214C007B681B681B6903F08003802B0ED17B68B6
:10215C001B68DB6803F08003802B07D17B681B684E
:10216C006FF080021A61786800F067FA7B681B6870
:10217C001B6903F04003402B0ED17B681B68DB68A6
:10218C0003F04003402B07D17B681B686FF04002C3
:10219C001A61786800F0F9F87B681B681B6903F01A
:1021AC002003202B0ED17B681B68DB6803F0200317
:1021BC00202B07D17B681B686FF020021A617868AE
:1021CC0000F032FA00BF0837BD4680BD80B584B040
:1021DC0000AF786039607B6893F83C30012B01D1FB
:1021EC000223B3E07B68012283F83C207B68022247
:1021FC0083F83D207B681B689B68FB60FB6823F0C1
:10220C007703FB60FB6823F47F43FB607B681B68F0
:10221C00FA689A603B681B68B3F5005F3ED0B3F573
:10222C00005F00F28780B3F5805F00F08580B3F526
:10223C00805F7FD8702B1AD0702B7BD8602B50D03E
:10224C00602B77D8502B3CD0502B73D8402B58D0C8
:10225C00402B6FD8302B64D0302B6BD8202B60D018
:10226C00202B67D8002B5CD0102B5AD062E07B68F7
:10227C0018683B6899683B685A683B68DB6800F0F3
:10228C005CF97B681B689B68FB60FB6843F0770319
:10229C00FB607B681B68FA689A604EE07B68186884
:1022AC003B6899683B685A683B68DB6800F045F905
:1022BC007B681B689A687B681B6842F480429A6052
:1022CC003BE07B6818683B6859683B68DB681A46DA
:1022DC0000F0BCF87B681B685021184600F013F91D
:1022EC002BE07B6818683B6859683B68DB681A46CA
:1022FC0000F0DAF87B681B686021184600F003F9DF
:10230C001BE07B6818683B6859683B68DB681A46B9
:10231C0000F09CF87B681B684021184600F0F3F82D
:10232C000BE07B681A683B681B681946104600F086
:10233C00EAF802E000BF00E000BF7B68012283F8EE
:10234C003D207B68002283F83C2000231846103780
:10235C00BD4680BD80B483B000AF786000BF0C3741
:10236C00BD4680BC704780B483B000AF786000BFBE
:10237C000C37BD4680BC704780B483B000AF78602A
:10238C0000BF0C37BD4680BC704780B483B000AF33
:10239C00786000BF0C37BD4680BC704780B485B0F8
:1023AC0000AF786039607B681B68FB607B68254AEE
:1023BC00934207D07B68B3F1804F03D07B68224AED
:1023CC00934208D1FB6823F07003FB603B685B68A9
:1023DC00FA681343FB607B681A4A934207D07B6808
:1023EC00B3F1804F03D07B68174A934208D1FB6846
:1023FC0023F44073FB603B68DB68FA681343FB60B3
:10240C00FB6823F080023B685B691343FB607B68CD
:10241C00FA681A603B689A687B68DA623B681A68EB
:10242C007B689A627B68074A934203D13B681A69BE
:10243C007B681A637B6801225A6100BF1437BD4662
:10244C0080BC7047002C01400004004080B487B071
:10245C0000AFF860B9607A60FB681B6A7B61FB684F
:10246C001B6A23F00102FB681A62FB689B693B61E3
:10247C003B6923F0F0033B617B681B013A69134312
:10248C003B617B6923F00A037B617A69BB68134368
:10249C007B61FB683A699A61FB687A691A6200BFD2
:1024AC001C37BD4680BC704780B487B000AFF86065
:1024BC00B9607A60FB681B6A23F01002FB681A6231
:1024CC00FB689B697B61FB681B6A3B617B6923F43E
:1024DC0070437B617B681B037A6913437B613B69A7
:1024EC0023F0A0033B61BB681B013A6913433B61BA
:1024FC00FB687A699A61FB683A691A6200BF1C37FB
:10250C00BD4680BC704780B485B000AF7860396040
:10251C007B689B68FB60FB6823F07003FB603A6888
:10252C00FB68134343F00703FB607B68FA689A600F
:10253C0000BF1437BD4680BC704780B487B000AF75
:10254C00F860B9607A603B60FB689B687B617B6973
:10255C0023F47F437B613B681A027B681A43BB6898
:10256C0013437A6913437B61FB687A699A6000BFF5
:10257C001C37BD4680BC704780B485B000AF786016
:10258C0039607B6893F83C30012B01D1022341E088
:10259C007B68012283F83C207B68022283F83D2073
:1025AC007B681B685B68FB607B681B689B68BB6017
:1025BC00FB6823F07003FB603B681B68FA681343ED
:1025CC00FB607B681B68FA685A607B681B68144A5E
:1025DC00934209D07B681B68B3F1804F04D07B68B1
:1025EC001B68104A93420CD1BB6823F08003BB607C
:1025FC003B685B68BA681343BB607B681B68BA684E
:10260C009A607B68012283F83D207B68002283F866
:10261C003C20002318461437BD4680BC704700BFD1
:10262C00002C01400004004080B483B000AF7860FF
:10263C0000BF0C37BD4680BC704780B483B000AF80
:10264C00786000BF0C37BD4680BC704770B5002663
:10265C000C4D0D4C641BA410A64209D100F022F8BD
:10266C0000260A4D0A4C641BA410A64205D170BD6D
:10267C0055F8043B98470136EEE755F8043B98476C
:10268C000136F2E7E8260008E8260008E8260008EC
:10269C00EC26000803460244934200D1704703F82D
:1026AC00011BF9E7F8B500BFF8BC08BC9E467047A3
:0C26BC00F8B500BFF8BC08BC9E46704793
:1026C80002030405060708090A0B0C0D0E0F10106B
:1026D80000000000000000000102030406070809CA
:0426E80031010008B4
:0426EC000D010008D4
:1026F00001000000010000000100000001000000D6
:102700002C01000001000000010000000100000099
:10271000010000002C010000010000000100000089
:1027200001000000010000002C0100000100000079
:10273000090000000024F400100000000100000067
:040000050800100DD2
:00000001FF
